:020000040000FA
:10800000000C0020BD000000C5000000CD000000F5
:108010000000000000000000000000000000000060
:10802000000000000000000000000000EF00000061
:108030000000000000000000F1000000000000004F
:1080400003260001712B0001A12D000199260001DA
:10805000CF2C000179090001F5000000D10A0001D0
:1080600097550001F50000009F560001F500000043
:10807000F5000000F5000000F5000000F50000002C
:10808000F5000000F5000000F5000000F50000001C
:10809000F5000000F5000000F5000000F50000000C
:1080A000F50000000348854600F038F80048004716
:1080B000B9000000000C002000F042F80E480F4804
:1080C0000F4800470F4910480847FEE70F4810497E
:1080D0000A78FF2A07D1F0B46A4600B50C230D4C8C
:1080E000A04710BCF0BC02200B490847FEE7FEE7A2
:1080F000FEE7FEE7FEE70000230000003005000079
:10810000A5000000F55500010100000055AACC3380
:10811000806300029D20000173530001064C01257D
:10812000064E05E0E36807CC2B430C3C984710341F
:10813000B442F7D3FFF7BAFF6C010000AC010000B6
:1081400003B40148019001BDD907000102E008C84D
:10815000121F08C1002AFAD170477047002001E0C1
:1081600001C1121F002AFBD17047FFFF9C5F000175
:108170000001002050040000605F00017C540002F8
:1081800060050020100000004C0100008C5400022B
:10819000700500200C0100004C010000743E00023C
:1081A0007C060020040100004C010000FFFFFFFFDF
:1081B000FFFFFFFFFFFFFFFFFFFFFFFFFFFFFFFFCF
:1081C000FFFFFFFFFFFFFFFFFFFFFFFFFFFFFFFFBF
:1081D000FFFFFFFFFFFFFFFFFFFFFFFFFFFFFFFFAF
:1081E000FFFFFFFFFFFFFFFFFFFFFFFFFFFFFFFF9F
:1081F000FFFFFFFFFFFFFFFFFFFFFFFFFFFFFFFF8F
:1082000021001881240012089113FFFF00000002D2
:1082100030020002FFFFFFFFDC550002FFFF28FFD6
:1082200010B50521014805F4AFD010BD30020002A1
:10823000B92900022F2E000245250001F317000185
:10824000114F000170B5FE48FF210068FF308130FA
:108250008479FC48FF3400684030808B604305F02F
:10826000EBF8F94D00B2A88703F0A8FC686414206D
:1082700044432004332105F0D9F8E86470BDFEB50D
:10828000F248EF49038AF24A0E68002B1DD0F149EB
:108290000089019008680024FF30A1300090670039
:1082A000BD19FF358135288F0199009A4843142163
:1082B00051566422514305F0BFF8298F641C0818F9
:1082C000E349142CC853EAD3FEBD002041008B19AA
:1082D000FF3381331B8F401C53521428F6D3FEBD4D
:1082E00010B5D94CD949608F8A894989504305F026
:1082F0009DF800B2D849A083C880D849C00348601F
:10830000D7494860D749A08B088010BDF0B5CD484B
:10831000CE4D0068CC498646048FC9480268FF20CC
:108320008B30805A68808446FF200530865AAE80A4
:10833000488F6881888BA881C548C08CE881C54872
:10834000EB880068FF308130078D9F4203D1012206
:108350002A82C08D0CE0478D9F4203D102222A82DF
:10836000008E05E0878D9F4204D103222A82408E31
:10837000488705E0002028824032908B4887EC80B7
:10838000EA886346A01A1B1A6B80331AAB802881D7
:10839000488FB4494880B448AB4942807046408F0A
:1083A000101A40314882F0BD70B504F07BFAAF4E30
:1083B000A3493079A34DA54C000722D5AA4840888F
:1083C00000280ED0E080FFF7A1FFFFF789FFFFF73D
:1083D00056FFFFF737FFA64800688047A54880474B
:1083E0000BE02868008FE0800868FF218B31095A74
:1083F000FF30618001308088A0809F48E188418102
:108400000BE02868008FE0800868FF218B31095A53
:10841000FF30618001308088A0809849E088088022
:1084200003F0FEFE03F05BF800F09BFB01F0AAF8FE
:108430003079C00604D5924820220178114301709A
:10844000904900200880C8708870887502F05AFF33
:1084500004F07EFC8D498C48086028682030407903
:1084600040070ED57B48E12100680901FF30A130AB
:10847000807D894B48438649C8600A460421854867
:10848000984700208549C043088060828549844818
:10849000086085490520087070BD10B573490979D9
:1084A000C90603D5814909888AB202E07249403978
:1084B0000A8B6421504304F0B9FF80B210BDF8B5B7
:1084C0006D4E614D403EF08800907948AF8A00784B
:1084D000C00701D0774800E0FA20F0800020A88291
:1084E000754CFF206070002000F064FD0098F08063
:1084F000AF8200206070204620380189E980C08862
:1085000080082887F8BD4F48016820314879000667
:1085100013D5594A6948938A4381D28AC2814979DD
:1085200049070AD566490988C90506D458490A7811
:1085300002824A78428289788182704710B5604809
:108540000078C00702D003F03FFB10BD5D48007803
:10855000C007F8D15C4801780B2001425B4805D088
:1085600041780029F1D00021417010BD0078032826
:10857000E9D010BD70B5564C3249228809680020F8
:108580005505544B4031002D14DA3B4D1626AE5F95
:10859000002E05DB504D2D4E2D8AB688B5420CD2EB
:1085A0000125AD02AA43228007E03C3ADA80CA7E68
:1085B000801A00B2DA883C2AF7D25A889C891219AC
:1085C00092B27D24E4005A80A24204D3121B5A8046
:1085D0004A7E801A00B21A885D89521992B21A80B6
:1085E000A24204D3121B1A800A7E801A00B29A8813
:1085F000DD89521992B29A80A24204D3121B9A804A
:10860000897E401A00B270BDF8B533481A4F042471
:10861000045F403F7889012108437881002C01DB09
:10862000884378812B4E25467089002801D060430D
:108630000546F08900285AD02849097849064FE0B4
:10864000F8030020F4030020CC0100207C06002069
:1086500098050020FC030020A003002088050020CE
:1086600090050020D6030020D0030020EC0300205A
:10867000B80100206D16000110030020240700201F
:10868000B00100205807002001400002C001002076
:108690007007002052060020C35800012607002062
:1086A000603E0002C8010020B20100200207002045
:1086B00054010020A60B0000F00600206C030020EF
:1086C0000401002009040020B10100202C04002036
:1086D000B401002034020020840100209602002012
:1086E00005D4BF49C988002901D060430546002C44
:1086F00014DD306940193061F16988420EDB401A9F
:108700003061788DB749884208D2401CB6497885D7
:108710000A8802231A430A80B4490880FFF72AFF17
:10872000B34A45191564106940191061516C8842AB
:1087300002DC916C884200DA1161AD48AD490069F4
:108740008847AB498886AC480078C0070AD0706972
:10875000A8494019706188473886A849306AC98895
:1087600040183062A4480078800604D5002C02DC52
:10877000B0694019B061F8BDF8B5A148A14C0079C5
:10878000A14DA24E000731D5307800072ED572B624
:108790003078F727384030709D480088E88062B60E
:1087A000FFF7B4FDFFF79CFDFFF769FD2078384027
:1087B0002070FFF747FD974800688047964880473C
:1087C00002F08DFE8A481921C0688904884208D3C6
:1087D00092490222087810434006400E10221043AE
:1087E00008708149032208881043088030780027E8
:1087F0008006800F002825D03078C0060FD572B6CD
:108800003078EF21084030708548008885498842DB
:1088100002D88549884200D20846688262B630781C
:1088200080060FD572B63078DF21084030707F485F
:10883000008862B6A98A814204D0A8827C48C78198
:1088400007824782214620787A4CC20707D0400829
:1088500040000870208A03F0E1FD02F093FD7648A5
:10886000008800281CD1688A5E49884218D0734A63
:108870001423D35E002B12DD7149D080097800B239
:10888000C90702D06F49401800B2052109024018FB
:1088900000B20A21401D04F0CFFD208000E0698273
:1088A000FFF7B2FE68480078400705D55048016CD4
:1088B000664802688918016003F08CF902F04EFCEA
:1088C00003F0BFFC02F0DEFC02F0DDFF30784A4925
:1088D000800711D03078C00701D0208A00E0608A7C
:1088E00072B6327892089200327062B60A884123DA
:1088F0005B021A430A8008E00888000507D554483F
:10890000817D002908D08775408A02F04EFE5148CB
:108910000178491C0170F8BD608AF6E710B500F0D7
:10892000E1FB00F0B2FF36480079C00605D501F042
:10893000D9F8012001F0C9F904E0002001F0C5F9DF
:1089400001F096F801F009F901F026F941480178A3
:10895000491C017010BD394910B540311620085E20
:10896000002805DA40391E228A5E904200DAC88368
:1089700003F01EFF3848006820304079400701D5D9
:1089800003F060F803F0AAF801F092FF3148017893
:10899000491C017010BD10B518480078102803D08C
:1089A000112801D003F049FB2C4804220178C906A4
:1089B000C90E01702A480188914301801D48084969
:1089C0008088C88003F00CF9FFF79DFD25480178E9
:1089D0004908490001701F490020087010BD0000BF
:1089E0006A010020FFFF0000CC030020D00300201C
:1089F000CC010020151F0001B40100202C04002030
:108A0000EC030020B00100207C060020B101002012
:108A100024070020B80100206D1600014007002047
:108A2000260700208E0F00001C09000028070020E8
:108A30002C07002084010020A0010020D00200208B
:108A40005401002054F5FFFF71050020840500202B
:108A500058070020B3010020F403002096020020F4
:108A60009A0200201605002070B5049D0646E81AFB
:108A700014460003511A04F0DFFC311B4143C817B0
:108A8000000D40180013401900B270BDF3B5FF4B44
:108A900083B00025FE480029026801D000240AE0C6
:108AA0001D780EE0115E0398814200DA2546641CB1
:108AB000E4B2042C05D2600086180221715E491CC4
:108AC000F0D1DB7FF249F14C096820345A00247858
:108AD00052186118184614246043002B3DD05023CF
:108AE0006B431B185C1823794034247DDB00E600BF
:108AF0000C24145F50276F4338184018017E6030F3
:108B0000007AC900C00002900E20105E0190E1487A
:108B1000009100682146808F019A404200B2FFF721
:108B2000A3FF074602980090DA48334600682146C2
:108B3000808F019A404200B2FFF796FF80B2D4497D
:108B400000900968680044180222095EBBB2A25E68
:108B50000398FFF789FF05B0F0BD00231E461C46B1
:108B6000C8E710B5CC480323438006218180082242
:108B7000C280083043808180C849C2800878184389
:108B80000870C248FF2101704170002120304170FF
:108B900000F098FC10BD70B5C28855184C1C00231D
:108BA000C35E42888E56B34207DB1657B3420EDBD4
:108BB0008688B24205D0521C02E0002A07D0521E1D
:108BC00042801204120C02D08688B242E9D190B2DF
:108BD00040190021415688B270BDF8B5502250436B
:108BE000AB4A12688018142251434218107EC40008
:108BF000AB4801680B46FF318131088A001B05B282
:108C0000A24C0420205E854201DB0020F8BD212417
:108C1000A45C498CE400091B09B2814212DD0121E8
:108C200003E0491CC9B20A291ED25418247EE5006B
:108C30004C00E418FF348134248A641B24B284423B
:108C4000EFDB11E00A2103E0491CC9B213290BD262
:108C50005418247EE5004C00E418FF348134248A43
:108C6000641B24B28442EFDB8E4D4C002E5B0096D9
:108C70005618317ECA00E118FF3181310B8AC9894B
:108C80009A1AF37D12B2DB00C91A6319403B09B28C
:108C9000DB8FFFF7E9FE80B2F8BDF3B57B4F83B001
:108CA00079783878FFF799FF029038787978401C06
:108CB000C0B2FFF792FF0646787800280FD0401E1A
:108CC000C1B23878FFF789FF04467878401EC1B2F8
:108CD0003878401CC0B2FFF780FF05462AE0704894
:108CE00004240168FF2091303C5F425E944201DC25
:108CF00000241EE0012003E0401CC0B2132806D26D
:108D00004200FF2352189133D35E9C42F4DC654A43
:108D10004000135A821840180093403AFF30D38F16
:108D2000813010220E21825E415E2046FFF79CFEBC
:108D300084B22546FC82029939837D83BE8379788B
:108D400000292CD0524A4B0012689A180C27D75F82
:108D50004F4849000068234609180E20085E01901C
:108D6000029800903946019A0398FFF77DFE044669
:108D70002B4600963946019A0398FFF775FE80B29C
:108D800000904248424900780968A3B24000441864
:108D90000222095EA25E0498FFF766FEDBE600276A
:108DA000D6E7F3B5394C5021207814224843617836
:108DB00083B0514342183649A07F0968394F4118A2
:108DC00051184A7E4000D300354A12688218FF329B
:108DD0008132558AEB1A9BB20093097E128AC90030
:108DE000511A8BB2C11902228A5E395E2E4D1420AF
:108DF000285EFFF739FE86B220785021484361781B
:108E000014225143224A4118A07F126882188D18FB
:108E10006035697A4000CA00214909684118FF316C
:108E200081314B8A9A1A92B200922A7A098AD20028
:108E3000891A8BB2C11902228A5E395E1A4D14203A
:108E4000285EFFF711FE85B26078002865D0217892
:108E500050225143142250430A180D49A07F09683B
:108E60004118521851799446CA000D4940000968CA
:108E70004118FF3181314B8A9A1A92B200926246B0
:108E80001279098AD200891A8BB20FE0D00600202D
:108E9000FC030020F4030020C00500204007002050
:108EA000F803002098050020CC0100203946411825
:108EB00002228A5E3946095EFA4F1420385EFFF7B7
:108EC000D3FD87B220785021484361781422514362
:108ED0004218F549A07F0968411852184032517D67
:108EE0004000CB00F14909684118FF3181314C8ABB
:108EF000E31A9BB20093127D098AD200891A8BB2C1
:108F0000EB49022241188A5EE949E64C095E1420C9
:108F1000205EFFF7A9FD84B215E0E648E349807FB3
:108F2000096840004118FF3181314A8A00920B8A5A
:108F3000C11902228A5E395EDA4C1420205EFFF7E6
:108F400093FD87B23C46DB48C78106824482858216
:108F5000417800292CD0D44A4B0012689B180C226F
:108F60009A5ED14802920068490009180E20085EF6
:108F7000019002463B46009602990398FFF774FD64
:108F8000064623460095019A02990398FFF76CFD67
:108F900080B20090C748C44900780968400044186E
:108FA0000222095EB3B2A25E0498FFF75DFDD2E52E
:108FB0000022D6E7F8B5051EBB48016801DD002593
:108FC00004E00C20085EA84200DD0546BA480624ED
:108FD000045FBA480078C00702D0B948201804B22C
:108FE0000A20085EA04200DC0446012003E0401C89
:108FF000C0B2042808D2420056180223F35E5B1C5C
:1090000002D08A5EA242F2DBAA4E401E30700020DF
:1090100003E0401CC0B2032809D2420052181023BA
:10902000D35E002B03DA0E23D35EAB42F1DC70700B
:109030009C4F01209E4AB98A03E0401CC0B213280D
:1090400003D24300D35A9942F7D8401EB077214645
:109050002846FFF7A6FE9749708020314978994A43
:10906000002903D010684030008807E09249403161
:10907000498B401A1168403109884018B08000B20D
:10908000002801DA0020B08021462846FFF705FEBF
:10909000F0801C22BA5EFF25AD005043294604F043
:1090A000CBF9308184481421415E80480068FF304C
:1090B00061300078814214DD00212046FFF7E6FC94
:1090C000718940188049B0810988081A708480B27B
:1090D00003F0A4F91C22BA5E2946504304F0ACF90F
:1090E000B084F8BDFEB502F081FD7848784E007876
:1090F000784D794F81070AD5C00908D12878082111
:1091000008432870308878816648C08EB8816A49E3
:109110001420085EFFF74EFF6648704900890988F1
:10912000604F401804B26C4804843420385EA0427A
:1091300002DD001B00B200E000200090684880794A
:1091400080072AD55F48F18A006840304088814214
:1091500045D859481421415E002940DC5348632317
:109160000068DB43FF306130427B5A43914214DB9D
:109170003188007B814210D32878C1060DD4594B29
:1091800001221988D20311431980574B41221978C3
:1091900011431970102108432870009878804B48BB
:1091A000454900784031C2070191002A1BD04C4943
:1091B0000979C90603D54549400840000870494867
:1091C0000288100604D53B48B98B808C081A388376
:1091D0001620385EA04264DD001B00B2A0E02878B3
:1091E000EF210840D8E74148F18A0088FB268142F8
:1091F0000BD9F868C217120C101802142B4800681B
:10920000FF300130807A824276DA01981422C38AD4
:109210002948825E981A254B00B21B68FF33213320
:10922000DB785B429A4276DC314A12888E1A3149E9
:1092300088471E4912220968FF3101318A5E904237
:1092400003DD28784007BAD520E022480078029054
:1092500040071BD4B888C97A4843FF2104F0E6F8D8
:109260001D4D183D68610099081A0004002E05DDA7
:10927000314604F0E1F828612E8002E000202861E8
:10928000288002981349042210430870002E04DD40
:1092900011491839086900282FDC0F48183840692F
:1092A00037E03CE0CC010020FC030020F803002064
:1092B00098050020D0060020D00200205401002094
:1092C00054F5FFFFF4030020820600204007002031
:1092D000840100200C070020AC060020420700207B
:1092E000EC030020B4010020B0010020FC060020A7
:1092F000FE060020695900010DE00A88964201DD52
:10930000788806E07043C217120C101849690014DF
:109310004018788053E72878304028704FE70120C4
:109320001821795E814202DA401A00B200E0012081
:109330002C21795E814204DA864B1B781B0700D40E
:109340000846854C1421615E002901DC110606D512
:10935000824A1C21515E814201DA401A00B27F4AE2
:109360001A21515E814200DD0846B8807C480079B0
:10937000C0065ED47B490878C2075BD04008400035
:109380000870C0097848385E4AD002F017FCB96806
:10939000764D441A2968B888FF316131097F484306
:1093A000642104F049F800B202F008FC064628687F
:1093B000FF306130C07CFFF770F800B202F0FEFBB6
:1093C000664A183AD060B44230DC71428C422DDBE0
:1093D000164684420ADC4042844207DB0198418BF6
:1093E0002868FF304130808E814222D82868FF30C3
:1093F0006130407CFFF751F800B202F0DFFB706093
:109400002868FF306130807CFFF747F800B202F037
:10941000D5FB4042B06071688C4204DB0C4605E02D
:1094200002F0CCFB04E0844200DC0446B86800197A
:10943000B860FEBD396C0029FBD0788D7A88801A1F
:1094400000B2002901DD404200B27D21C90048433D
:109450000421795E03F0F0FF454A01B2904202DC3C
:10946000D243904200DA1146424801803F480168E9
:109470004048FF314131FFF78EFBC0B2002100F0C0
:1094800019F93A6C00B250430A2103F0D5FF3A496A
:1094900022890968403109888A4208D21421615E14
:1094A000002904DA35490968884200DD0846B968B0
:1094B0000818B86001D50020B8600146786C814278
:1094C000B6DCFEBD70B52E4900230C682A4918464B
:1094D00009680CE03C254D5F0E26965F6D42B54253
:1094E00001DA421CD3B2401CC0B2032805D24200AC
:1094F00012191025555F002DECDB184C1848243448
:10950000E377007943061948026810D501200B8FD4
:1095100003E0401CC0B2132806D24500AD18FF3549
:1095200081352D8AAB42F4D844254D5F06E0FF32E9
:109530008132098FD28E1320891A0DB20749401E3D
:10954000443108700121FA20FFF7A0FA281A60813F
:1095500070BD0000B0010020D0020020AC06002049
:10956000EC0300204007002002000000F803002068
:10957000FF7F0000C0050020F40300204407002006
:10958000FC030020F8B5F748F74E808D7081F7484E
:109590000A2104682546FF340134207A000403F0D0
:1095A00045FF7062F248F34A07684020C05BF080D4
:1095B000218A914201D00818F080E18980B209180F
:1095C00089B2B180814201D86430B080607AFF28CE
:1095D00000D10A2009210004C94303F02DFFB06225
:1095E00000203082FF208030405D70822037F87983
:1095F000000604D5FF35213528780002F082F8BD39
:1096000070B5DD49D74D02460988286C09B2D84C9F
:10961000484321684031497A002900D0484311B2BB
:1096200002F0F8FB020C09041143AA88FF236933F6
:109630005A430004D31702F0DFFA24684034A27AB8
:10964000002A02D0D30F02F0D7FACC4B00221B1A0B
:109650008A4101DAC94806E00123DB07DA17C31A99
:10966000914100DAD007C04A516A884202DC49427F
:10967000884200DA0846C24924880B89A34207D2EF
:109680001423CB5E002B03DA916A884200DD084682
:10969000E9680818E86001D50020E8600146E86C38
:1096A000814201DC084600E0E860C117090E081895
:1096B000001270BD70B5AC4AAB4D1432127854072D
:1096C000AF4A4032538BEA88002C05DB93421DD809
:1096D000A44C246C002C19DAA44C9342246809D8B9
:1096E000FF3441341F202056002980B202D10F20C0
:1096F000205680B29D490968FF3101310A2806D9F8
:10970000097B414388B20A2103F090FE70BD0A280C
:10971000FCD20A22504380B2497B03F087FE002826
:10972000F4D1012070BDFEB5954814250646455F6D
:109730004036F08A9349401B00B288478B498A4FD4
:109740000C688949FF340134227E1431904236DDA1
:10975000607EBA78904207D30B78DB0702D0521CA8
:10976000BA7001E0401CB870002D75DD864BE07DBD
:109770001B88728B181A82426EDB627EB878029068
:1097800082427BD3774E308D0190642876D2A28AB4
:10979000A8B2904204D9A27DF068120490426DDB19
:1097A00073480068828F2030C07F1018281A05B2D5
:1097B0006D48143000780090C00702D01DE00020F2
:1097C000D1E73D81002D07DD1920F1688004401AA2
:1097D000294603F031FE00E000203862A17DF068E8
:1097E0000904884201DBA07E00E0E07E78705E49DB
:1097F000009814310122104308700298002830D1DB
:10980000002D04DC0198622801D3604834E0607FB9
:1098100001903978009188421FD9207F0A210004E5
:1098200003F004FE0821795E3A6A491B51438842DD
:1098300002DC0098401C00E0002038703978019864
:10984000884205D848481430017849084900017019
:109850007878FFF7D5FEFEBD10E00820385E85421F
:1098600001DDF06808E0386A192168438904081AA4
:10987000F168814200DD0846F060ECE708784008B6
:109880004000087000203870E5E7F8B5354D6421D8
:109890006888000402F0BEFA0422AA5ED31702F020
:1098A000ABF9364B00221B1A8A4101DA334806E035
:1098B0000123DB07DA17C31A914100DAD007064605
:1098C0002948F717C661380E801900122862000275
:1098D000000C2880EC68E017000E0019001201024D
:1098E0000A0C2B490B78990779D52949FD273B406C
:1098F0000B70D9094ED0311B1C4E36683746FF37E6
:109900006137BC463F7F3F048F421EDD7F428F425E
:109910001BDA6746FF7C3F048F420ADD7F428F429D
:1099200007DA174FFF36403741367F8BB68EB74286
:1099300013D86046407C0004884205DD6046807C88
:1099400000044042884200DB01466018C117090E3E
:10995000E8600818001201020A0C5B060C495B0E55
:1099600082E00000CC010020F8060020F80300206F
:10997000F4030020FFFF000006010020FFFFFF7F2F
:10998000D00200206959000182060020007D640099
:1099900040070020FE48D90624D5EF210B40037074
:1099A000FC48FD49C08C0988401A00B2002817DD28
:1099B000052109044843332103F03EFD00280FD060
:1099C000192292048018A11BE860002901DD4018CB
:1099D000E860E968E86C814206DC084605E008E0DA
:1099E000B442F6DCEE60F4E7E860C117090E08182F
:1099F00021E0EA49EA4C898800292ED0FFF793FE3E
:109A0000380C8019000CE883E9680A22881B50434F
:109A1000C217120C1018E14A0423D35E0014002B65
:109A200001DD404200B2DF4A10802078C00706D036
:109A3000C817000E4018001201020A0C15E0DA489F
:109A40000168D848FF315131FFF7A5F8C0B20121B4
:109A5000FFF730FEFFF7D4FDEEE721780023490839
:109A600049002170CE4914390B7068622A85F8BD0F
:109A700070B5CE4C0121E0680904884231DBC11782
:109A8000090E08180512CA4801684031887A002872
:109A900002D0C200801800E009204543487A00281F
:109AA00001D0800100E04020C24909884143A068FC
:109AB00002F0B0F92A46EB1702F09EF8BE4B0022E6
:109AC0001B1A8A4101DABC4800E000B21621615E2F
:109AD000814203DB0421615E814200DD0846B74913
:109AE000088370BD70B5B14A0121D068090488426D
:109AF0002CDBAA48AA4C8388AB48143C0068102190
:109B0000FF30615E00256130002B20D00426965F77
:109B100062890E23B21AE35E12B29A4203DB0C236F
:109B2000E35E9A4213DDA64A638AD288D21892B2C3
:109B30006282C37F934209D8491C658209B221829F
:109B4000807F884202DC66812582638270BD0029A5
:109B5000FCD02582C07F608270BD30B5934C9748A1
:109B600062880284A38892498383096820314D79F1
:109B70006D0601D4258800E0258C8580C978C9064A
:109B800005D5618D0182018B4182C18C02E0028288
:109B90004382A9B2818530BDF0B585488349056807
:109BA000AC462035E879000603D57D481438008B93
:109BB00000E0088DEA78498DD6077D4A04241268B2
:109BC0007E4B4032002E0BD1168C8E4202D35E8922
:109BD00026435E81568C8E4202D85E89A6435E8102
:109BE00066466036B446367A86425E8902D30127DD
:109BF0007F0201E0FF270137BE435E816646767A29
:109C0000864204D35E89FF2701373E435E81D68CAE
:109C10008E4203D85E890227BE435E81968C8E42B7
:109C200003D35A89022632435A81664A1688770539
:109C300005D5642803D203277F02BE431680B6B23F
:109C4000B70505D5642803D2032040028643168059
:109C5000E878C00721D01425584A5B4E5D5F40323A
:109C60003068002D08DAD288914216D25989A04373
:109C70002143598101210EE0002D0EDD1289914210
:109C80000BD9410709D459894A0701D5A14300E0FE
:109C900021435981052108433060F0BD494A19210B
:109CA00012888902D3040DD4920504D43F49C98F88
:109CB000814207D907E0394A0423D35E002B01DC37
:109CC000884200D3084680B27047F1B53349002678
:109CD000CA8A374919240968A40240314988334F98
:109CE00030468A4213D9009900290CD02C490A2207
:109CF00014398A5E7E6A564303D02146304603F00B
:109D000095FB78850AE0B86801F07CFFF9E7002050
:109D10002E4978850979490700D5B860274D788D97
:109D200068840098002817D01D48294914384089B4
:109D30002883087882060BD5DF2210400870796AE4
:109D4000A14205D21F48012201885202914301809D
:109D5000786AFFF7A3FF02E0786A01F059FF044632
:109D6000002E09D0002C07D0786AA04204D02146EA
:109D7000304603F05BFB28837C6208480C4CC28AA7
:109D800021684220405A824229D800200F4A21E00F
:109D900040070020980500208A060020840100204A
:109DA0000C070020C8050020F8030020CC0100208B
:109DB000F403002006010020FF7F0000D0020020F5
:109DC0002C040020B4010020D0050020EC0300206A
:109DD000B001002078621279520700D5F860786AE5
:109DE00020310202120C3A85CB791B0622D5164E81
:109DF000F18A884201D8002009E0401A64214843D2
:109E000012490968FF312131497803F00FFB0099AD
:109E1000002902D0FFF742FF01E001F0F9FE010244
:109E20007083090C3183226820325279520606D49D
:109E3000E98405E04979490601D4EA8400E0E88430
:109E400001F0D4FEF8BD0000F8060020F803002061
:109E5000F8B5F44A0124136864042343F24D1360F7
:109E60006A180C46B82825D0B9282DD08B1CDFB233
:109E7000BF1CFAB2921C9446D2B2921C9646EB4E8C
:109E8000EB4A36881278BA282FD0BB2845D0BC2898
:109E90007DD02A4656181036BD2876D0BE2875D0FB
:109EA000BF2806D101F0BAFEE34B32460421E14857
:109EB0009847F8BDE04B2021E0489847DF48DA4951
:109EC000006C4031C880F8BDDB4E0E21DC48B04745
:109ED000DC490E34E0B2498B2952801CC0B22A18EA
:109EE000D74810210E30B047F8BDD7488088685257
:109EF000D649D8B209882952F8B22E526046C0B26B
:109F00002A527046C4B22A19CB4B1421D048984724
:109F1000D0491434E0B2096860E0CF480078685254
:109F2000CE49D8B209882952CD49F8B209882952B8
:109F3000CC49001DC0B209682950CB49001DC0B2F0
:109F400049682950C949001DC0B249682950C8490B
:109F5000001DC0B209882952C649801CC0B20988B8
:109F60002952C549801CC0B209882952C349801CA6
:109F7000C0B209882952C249801CC0B24A8A2A52FA
:109F8000801CC0B2C98C40E001E014E028E0BD486C
:109F9000006828510C1DBC49E0B209882952801C78
:109FA000C0B22A54B949401CC0B209782954401C97
:109FB000C0B22E52F8BD01F031FE9F4B32460A214D
:109FC000B3489847B3491A34E0B2CA782A54401CBF
:109FD000C0B20A792A54401C8968C0B22950F8BD21
:109FE000AD48AE49008809880843AD49098808434F
:109FF0002853AC49D8B209882952AB49F8B209783C
:10A000002954AA4960460988C0B22952F8BDF8B55A
:10A01000044601F009FEA6480078022807D1BD2CAD
:10A0200005D18148C06D002801D09A498860A148B7
:10A03000007840071FD57C482030807F0F281AD138
:10A0400079487D4B40309C4D04279C4E082C02D013
:10A05000092C06D00FE09A4A062198472878384301
:10A0600005E0984A06219847287808210843287077
:10A07000307838433070032001F0DCFDF8BD10B5B6
:10A080006948914920300978807F002902D0F02862
:10A0900004D22DE0702804D071281DD001F0D0FD2D
:10A0A00010BD61480621644C884A4030A0475E4894
:10A0B0000621874A4630A0475B480621854A4C3036
:10A0C000A0477D4801781022114301707B4804228B
:10A0D00001781143017007E07F4800682030407923
:10A0E000400705D500F055FA012001F0A3FD10BD91
:10A0F0000520FAE770B504460120400201F0A6FDF4
:10A10000494A012640324C4B464D7604012C12D070
:10A11000022C13D0032C18D0042C19D0052C1AD0E3
:10A12000062C1BD0072C1CD0082C1DD0092C0BD1C1
:10A130000621644804E00621684801E006216348DE
:10A14000984728683043286070BD06216048F7E7CB
:10A1500006216048F4E706216148F1E706216148DD
:10A16000EEE706216048EBE706215548E8E7F8B539
:10A1700001212D4C4902304E2A4D0F0240347028E7
:10A1800002D0712812D025E0084601F05FFD22467A
:10A1900006214E48B047244A4D4846320621B04772
:10A1A000214A4C484C320621B0470FE04A4A126817
:10A1B0002032527952070DD5084601F047FD22465C
:10A1C00004214A48B0473E480088A08028683843A8
:10A1D0002860F8BD01F03AFDF8BD10B501064A0E41
:10A1E0000FD0490E012914D003291AD010297FD08D
:10A1F00012297ED013297DD018297CD037297BD015
:10A20000B9E0C0B201F028FD012801D101F02AFD1A
:10A2100010BDC0B201F020FD0128F9D101F028FDE8
:10A2200010BD6AE0B8020020000000200C070020EA
:10A23000F806002018020002C3580001CC010020DB
:10A24000D0060020100300204807002072050020DF
:10A25000580700207C05002071050020B401002073
:10A26000740500208405002088050020900500204A
:10A2700042070020820600207E0600208006002083
:10A28000980500201807002000070020FA0600208B
:10A290003A07002070070020000500200C05002070
:10A2A0000E050020040500201205002006050020F0
:10A2B000630200209402002097020020170500206E
:10A2C000D0030020D6030020980200202E06002094
:10A2D000340600203A060020F4030020280600205F
:10A2E00040060020460600204C06002052060020B2
:10A2F0000BE024E02BE032E043E0C0B201F0ACFC24
:10A3000001288DD100F0D7F910BDC0B201F0A4FC36
:10A310000128F9D1FE49088C022800D90020FD4A05
:10A320009080FD4A10840884FC4801782022114363
:10A330000170012001F07EFC01F0A0FC10BDC0B254
:10A3400001F08AFC0128F9D100F094F910BDC0B2E7
:10A3500001F082FC0128F9D100F06BF910BDF04941
:10A360000979090707D5C0B201F076FC0128F5D1BB
:10A3700000F035F910BD022001F05CFC01F084FC16
:10A3800010BDC0B201F068FC0128F9D101F082FCD7
:10A3900010BD02460020C04311064B0E14D0490EDA
:10A3A000012911D003290FD010290DD012290BD06B
:10A3B000132909D0182902D06E2A05D003E0D84904
:10A3C0000979090700D402207047F8B504460F4602
:10A3D000FE21084000253E382646ED43553E0090BC
:10A3E000242805D3CF49204609688847054615E04B
:10A3F000CD483E2C00780DD0612C0BD03F2C0DD0D9
:10A40000542C0BD0602C09D00B2E06D2800704D41C
:10A41000002503E08007FBD500E00125042F09D0CB
:10A42000022F07D0009824280FD3C049204609687E
:10A4300088474FE0002D04D1022001F0FBFB01F022
:10A440002FFCBB490020088044E03E2C0CD03F2C60
:10A4500011D020464038B74F14280FD2012001F008
:10A46000E9FB01F00BFC20E0AF48007880072CD519
:10A4700001F01CFC2EE000F0B8F92BE0542C06D0C3
:10A480000B2E07D2A84800788007E7D41DE001F022
:10A4900013FC0AE0602C02D0612C0CD015E0A2481D
:10A4A0000078800711D501F00DFC012138680904FE
:10A4B000084338600EE09C480078800705D50120ED
:10A4C00001F0B8FB01F0DAFB04E0022001F0B2FB7E
:10A4D00001F0DAFB2846F8BD10B501F0F9FB904811
:10A4E000002200788006002818DA93480178CC29E9
:10A4F00014D10270884831214030817038210171B7
:10A500008E4908884004400C08808D49098808431A
:10A510008C49098808437E498031C8807D48828003
:10A5200081887D4A118480887949088410BD8649D4
:10A53000002008708649854808608749854808607A
:10A540008749864808607749864808607749864881
:10A5500008608749854808608749864808608849B7
:10A5600086480860884987480860894987480860A4
:10A570008949884808608A49884808608A49894822
:10A5800008608A488A4A017911708A4940790870BE
:10A5900070475F4810B504214030884B864A044616
:10A5A00098478249A08808808348C1783C2901D314
:10A5B0003B21C1708178182901D31721817041781E
:10A5C0001E2901D31D2141707D48017824221143A9
:10A5D00001707C48042201781143017010BD10B550
:10A5E00079494B480968008E098F4A4A81420DD04B
:10A5F00076490968FF3181310B8D834206D04B8D3E
:10A60000834203D0898D814200D010881188814215
:10A6100005D0108041490A7808231A430A703E4940
:10A6200008866B494881012001F004FB01F026FBFC
:10A6300010BD10B536486649C08C08813649C884BB
:10A64000614800682030C078C0070DD0604A0423FC
:10A65000403A50899843508148815E4905220868F4
:10A660009043022210430860012001F0E3FA01F058
:10A6700005FB10BD10B526485549808CC880264979
:10A680008884514800682030C078C0070DD0504AF7
:10A690000423403A50899843508148814D4905220E
:10A6A00008689043022210430860012001F0C2FABA
:10A6B00001F0E4FA10BD70B51949154BC978D88876
:10A6C0004D074549454C098802B20BD56510521912
:10A6D000651EAA4204D2C9070CD04149401808E0BF
:10A6E000204607E0A04205D0C90703D13C484042BC
:10A6F000101880B2074948800748C088D8800748AA
:10A700000178102211430170012001F093FA69E0F1
:10A7100000000020240700202C030020B1010020AD
:10A72000EC030020BC02002094020020C0020020A4
:10A73000B6010020B80200206802002000050020B9
:10A740000C0500200E05002063020020D924000221
:10A7500078020020CB2300027C020020B1410001DE
:10A760008002002093230002DB210002593C0001FB
:10A77000C4020020EF3B0001C80200206F2100024C
:10A78000A4020020F5200002A80200207F20000281
:10A79000AC0200200F200002B0020020511E000277
:10A7A000B4020020D9380001CC020020D0030020E0
:10A7B000980200209902002052060020C358000190
:10A7C0009702002017050020F4030020FC0300205E
:10A7D00010030020D005002054010020FFFF0000DE
:10A7E000AC0A000001F04AFA70BD10B515491448D2
:10A7F0000978C07F890702D501F058FA10BD0028FA
:10A8000004D0411E022904D8F1300BE0FF200130B2
:10A8100008E00D490978022902D101090B2909D064
:10A820000120400201F012FA012001F003FA01F0C8
:10A8300025FA10BD054A402112689047F4E7000050
:10A84000200000209402002063020020B4020020B7
:10A8500070B54E484F4D02682320805C0223C60726
:10A8600000244B482968002E16D08E0707D599433F
:10A870002960118C490401D4836000E08460296858
:10A88000CE0706D0490849002960118C490409E027
:10A89000846070BD836070BD128C9504FBD5C906C1
:10A8A00003D551040029F5DBF2E75104F2D5EFE7B7
:10A8B00070B5384A31211068090188433649106063
:10A8C000CB89324970240968645A234202D010238C
:10A8D00018431060203132488979304B00888C074A
:10A8E00004D5840502D514681C4314602D4CCD0793
:10A8F00004D0C50502D51568254315608D0604D51D
:10A90000850602D515681D431560CD0604D5C5061C
:10A9100002D5156825431560234D0E0704D506079B
:10A9200002D516682E4316604E0704D5460702D599
:10A9300016682E4316600D0604D5050602D5156867
:10A940001D431560490604D5400602D51068204312
:10A9500010601648164900782023C4070888002C88
:10A9600009D0144C2478002C05D014681C431460C2
:10A970009A02104304E0146840049C43400C1460A5
:10A98000088001F049FFFFF763FF70BDF40300206A
:10A9900000040140D0050020100300200001000049
:10A9A000680600200002000000030000640200208E
:10A9B0009A0200200A04002010B572B636490868D1
:10A9C000C00301D4022000E00020BFF34F8F0860D5
:10A9D000BFF34F8F62B63149314801F07FF901F082
:10A9E00083F931492F4808603149304808603148BF
:10A9F000C27E3149332A01D0007F00E00020087078
:10AA0000FF2001F077F901F07BF901F07FF90622D0
:10AA10002A49D01F01F080F901F084F901F088F98A
:10AA2000274C208801F08AF92649601408602648DE
:10AA30000088411C401C01F087F9002001F08AF9D0
:10AA400001F08EF9608801F091F901F095F900F0BC
:10AA5000E6F801F097F91E491C480860FDF70FFC65
:10AA600001F096F901F09AF9FDF79EFC01F09CF9CE
:10AA700001F0A0F9FFF75BFD01F0A2F901F0B0F8D9
:10AA8000FDF741FD01F0A2F902F0E0F8114812498A
:10AA900000681430086010BD00F00140000800207C
:10AAA0007005002000020002080500200C020002D0
:10AAB00004040020C06300026802002010020001AC
:10AAC0004062000280E100E01C050020BF0400029B
:10AAD000B8010020DC030020E003002070B505462B
:10AAE0008806800E1446F64E030001F0ABF90B9673
:10AAF000872433414F5D6B7907159600A00719D560
:10AB00000821284601F068F9012813D10621ED4AF1
:10AB1000681CB04702207FE0E0077ED0082128466D
:10AB200001F05AF9012878D10621E74A681CB0479C
:10AB30006408640071E0E0056FD50821284601F043
:10AB40004BF9012869D10621E04A681CB047FF2073
:10AB5000013061E0200660D50821284601F03CF96B
:10AB600001285AD10621DA4A681CB047802053E0F8
:10AB7000600652D50821284601F02EF901284CD153
:10AB80000621D44A681CB047402045E0A00644D5C1
:10AB90000821284601F020F901283ED10621CE4A9D
:10ABA000681CB047202037E0E00636D5082128464B
:10ABB00001F012F9012830D10621C84A681CB047BB
:10ABC000102029E0200728D50821284601F004F9A3
:10ABD000012822D10621C24A681CB04708201BE088
:10ABE00060071AD50821284601F0F6F8012814D18B
:10ABF0000621BC4A681CB04704200DE0A0050CD516
:10AC00000821284601F0E8F8012806D10621B64AB5
:10AC1000681CB047012040028443204670BD10B537
:10AC200001F0ACFF01F0DEF80121400249064018B6
:10AC3000AE49086001F0D2FF00F09EF9AC48007800
:10AC4000800706D4AB480078000702D59D49012053
:10AC5000487110BDF1B5A84E0127306882B0402878
:10AC600007D3A6482022017811430170A448077039
:10AC7000FEBD9E4DB0212C682078084010281FD0C2
:10AC8000A04801780770A020C043009072B601234D
:10AC90006A4621469C4801F0ABF862B620680099EC
:10ACA000884204D09948018839430180FEBD30684C
:10ACB0009749801C30600878022801D2401C087037
:10ACC000029840210843934F019030688749C200A1
:10ACD0000968401C306001983870029855188D4CF6
:10ACE000030001F0AFF80B3937292B2D2F31333505
:10ACF00007093900734800E073480621704B7A1C3D
:10AD000098476F4A072183483A3A9047F87172B6DC
:10AD10000223224629467C4801F06AF862B60222E4
:10AD20002146284601F04AFF012817D0012130684A
:10AD300049028842C9D2FEBD6448DEE76448DCE7C8
:10AD40006448DAE76448D8E76448D6E76448D4E75B
:10AD50006448D2E76448D0E7781CCEE738780A2107
:10AD60008006800E091A01206B4B88401988604CC0
:10AD7000814319802288024322808805002200280E
:10AD800005D15E48EF240178214001701A80FF2030
:10AD900038705B480270FEBD70B572B65F4D2878A2
:10ADA00000283DD028780221C20746485A4C002A84
:10ADB00005D05B4A1278427122880A4322802A78A1
:10ADC000920705D5574A1278027122880A432280D9
:10ADD0002A78520705D502885348428520880843BF
:10ADE00020802878000703D520880121084320808F
:10ADF0002878C00603D52088E021084320802878E1
:10AE0000800609D52E4B494A0421374898472088A7
:10AE10000121490208432080287880098001287098
:10AE20004348FB2201781140017062B670BDF8B54D
:10AE3000334C394F2078314D002806D000260128A8
:10AE40007BD0032878D02670F8BD30480078C00742
:10AE5000FAD1324908781B4AC00706D072B630488A
:10AE60000078002800D0507162B65079002817D0C1
:10AE7000FFF792FF3888002803D028781021084374
:10AE8000287029782B48002905D0012121700178EC
:10AE90000222114302E00178FD2211400170F8BD49
:10AEA00072B60878C00708D1087880098001087058
:10AEB0001F48FB2201781140017062B6F8BD3CE0EA
:10AEC000C3580001D0030020D6030020280600202C
:10AED0002E060020340600203A06002040060020FE
:10AEE000460600204C0600205206002024060020C2
:10AEF000CE030020EC030020200600202A070020BB
:10AF00001C0600201E06002055AACC331205002086
:10AF10001D06002060050020CC03002097020020C1
:10AF20009902002098020020D00200207007002023
:10AF3000170500201605002019E0287881060CD599
:10AF400001F062FE2878DF21084028702D48267025
:10AF5000008838802C480660F8BD2C49098A0029F1
:10AF6000FAD0C006F8D50A2001F05DFEF8BD2848E9
:10AF70000078FFF76FFEF8BDF8B50025ED432148D6
:10AF8000AA0D0095028023480678002E25D03F2484
:10AF900002272148E1000068415C8909032902D0A9
:10AFA000691C1FD005E0691C00D10094641EBC42DE
:10AFB000EFD2E300C15C1818FFF790FD020013D038
:10AFC000641EBC42E5D2761E3606360EDFD10099ED
:10AFD0000D48491C0AD0009901600A490888504070
:10AFE0000880F8BD2546E4E70126ECE70A49096830
:10AFF000FF31E131097EFF2901D04021ECE7022138
:10B00000EAE70000CE030020200600208401002093
:10B01000600500201D06002024060020C548007998
:10B02000C00602D4C549C448C860C5480122418948
:10B03000520211434181C348032201885202114345
:10B040000180704730B5C0483C2100681423415E40
:10B050002030C27FBD4C8918B94AD35E99422FDB9C
:10B06000B84B1988CD0428D41589B44A4032528A85
:10B07000954221D3857F20880122854204D9401C36
:10B080002080B348017815E0012000030143B14856
:10B090001980017811430170FFF7C0FFA54880793E
:10B0A000C00709D018880121C90308431880AA489D
:10B0B000812201781143017030BDFFF7AFFF30BD31
:10B0C0000020208030BD70B5A448A54C00889C4D60
:10B0D0004100142208190623AA5EC35E9A423ADA96
:10B0E000984B1A88D60433D42D89615A8D422ED9B3
:10B0F000954CC18924682034A57F0124A94205D23A
:10B10000491CC1819248017821431FE09548964926
:10B1100000680988FF3081308089884217D2012079
:10B12000000302438B481A80017821430170FFF726
:10B1300075FF80488079C00709D018880121C903AC
:10B14000084318808448812201781143017070BD42
:10B15000FFF764FF70BD0021C18170BDF8B579496A
:10B16000088802064BD5764D1422AA5E764E002A38
:10B1700046DC794CC00427D5FFF750FF6D486F4F70
:10B180000079C0060AD56C48F860688C19218902DC
:10B190004843764902F04AF975490880B88E398BE0
:10B1A0004018F8822078082108432070C0060BD58B
:10B1B00032681E202C21285E515E884204DA401835
:10B1C000C10F08184010E8835E4A80201188694B3F
:10B1D000814320200143002098615E4B01261D78A9
:10B1E00035431D703303994311805D49C88108823E
:10B1F0004882564908802078EF2108402070F8BD29
:10B2000030682030C079000602D5FFF75CFFF8BD3A
:10B21000FFF718FFF8BD4B481622018891430180C3
:10B220004748802241899143418153480222018845
:10B2300091430180704730B5414916204031085E86
:10B240004E4B00281ADC3F4C2188CA0516D51A88B7
:10B250005D88101A80B2420A521992B2C0055A8013
:10B26000C00D18803F480068FF306130C07A9042BE
:10B2700003D8FF2001308143218030BD0020188099
:10B28000588030BD10B52F4C207800062ED4FFF723
:10B29000D2FF01F036F800F018FA29491420085EB0
:10B2A00030490968FF316131097888421FDD27493B
:10B2B000002008802088FF21813108432021884315
:10B2C000208024480178090909010170FFF7A3FFD4
:10B2D000214AF7211078084018491070CB8DCB8295
:10B2E000C98E802902D210210843107010BD494236
:10B2F0008842FBDC2078C006800F0228F6D1FFF7D9
:10B300008AFF10BD104800682030C079000610D5B3
:10B310001B4813490068FF308130028D0A80428D3E
:10B320004A80828D8A80C28DCA80028E0A81408EB8
:10B3300048817047EC030020007D6400CC010020B0
:10B34000D0020020B4010020F40300209206002067
:10B350000804002071050020B001002090060020A4
:10B360002C070020F8030020120700207D64000055
:10B3700002070020340200209A0200205806002014
:10B38000FC030020F8B5FF49002409880A0404D50D
:10B390004904FC4A490C11800124FB49097809063B
:10B3A00009D4F84A11888B0605D5202399431180CA
:10B3B000490700D50224F549884701B2F44DF54EFE
:10B3C00029803C20305E814200DD2880002C0AD09C
:10B3D0002888012C2ED0B18E401A68800918B186B9
:10B3E000F18A08182FE034210020715E285E01F0F8
:10B3F00055F86880B18E0918B186E74949898905F1
:10B4000022D5E549E54A4031498B128891421BD942
:10B41000E34988470746E348DC490068FF3061306C
:10B42000807D7E31884700B287420DDDF08A6988D1
:10B43000401808E0D449B0860878020604D4F72200
:10B4400010400870F08DF0823420305E00F0B6FBC2
:10B450003061F08AE988884202D82989884200D27E
:10B46000F18200F0CBFCC84D287880090AD100F0A9
:10B47000CBFCCD4900200860C2480122018852035C
:10B4800091430180BF4A02211088012308431080A4
:10B49000BF4A083A012C0DD040058024002804DB67
:10B4A00010781843084320431070BB494889204353
:10B4B0004881F8BD2878040602D54006400E07E012
:10B4C000440607D514781C430C43BF211470084070
:10B4D0002870F8BD1078184308431070F8BDF8B50F
:10B4E000B04CAA4E2068FF306130407E7E36B047B7
:10B4F000AE4D68832068FF306130407FB047A8833D
:10B500002068FF306130C07DFF30B047A04DFF2183
:10B51000E8802068FF306130007E081AB04728813B
:10B520002468FF207130015DF0209A4F4143B88BB1
:10B530004843112101F07AFF9D49083D0860FF2032
:10B540008130005D642808D2798FBA8B891A09B2DC
:10B550004843642101F070FF00E00020FF34688060
:10B560000134607A8F4FFF2800D10A208749923139
:10B57000884700B200F022FB0921C94301F05CFFBB
:10B5800068608C480079C0060ED53868FF3061309D
:10B59000807EB047884908803868FF306130C07EBF
:10B5A000B047864940420880F8BDF1B5754C01218D
:10B5B0002088C902884374492080097889097DD18F
:10B5C0001021084320807E48022201881143018017
:10B5D000009800F023FF054601F081F8794F00261E
:10B5E000012837D0784806603878C1073BD07748C3
:10B5F00005806C480068FF30893000F076FE012835
:10B60000387833D0F12108403870284600F05FFFC9
:10B610005F4F01282DD0BD802088C00546D46C48DE
:10B62000058060480068FF30893000F05EFE694A9E
:10B63000C1071078C90F40084000084356491070F0
:10B640000E866549C0074E610E62208824D0012114
:10B65000084323E02946002000F072FFFFF73FFF78
:10B6600059480660387800090001CDE706210843F3
:10B67000CAE72946012000F063FFFFF730FF00987A
:10B6800000F0CCFEB880FFF77DFE544854490660B8
:10B6900020880840208010E04008400020804F486B
:10B6A00001210660208889038843208020884D4935
:10B6B000084202D02846FFF765FE00E004E0364865
:10B6C000B988418600F092FAF8BD3E490878C20771
:10B6D00008D0454A454B528A1B889A4202D84008F6
:10B6E00040000870704770B5294D00241035EC7289
:10B6F0006C722C486C730068FF30673000F0F5FD09
:10B7000001280DD124484030408B00F0AEFE0128C6
:10B7100006D11C48364A018811430180EC70AC7098
:10B7200070BD10B50C46304900220023825ECB5E0E
:10B730005A43D117090E89180222825E0912501845
:10B740000A2101F079FEFF2801DDFF2002E0A0427E
:10B7500000DA2046C0B210BD70B50F4D0C4C40351C
:10B760001034688BE189401A0D4900B28847E27DA8
:10B77000204990426ADC607A401C6072A0780128FF
:10B7800041D039E0B4010020B0010020131A0001BB
:10B7900048070020CC010020D002002080060020B5
:10B7A00069590001F803002078050020AC0600204C
:10B7B00080050020EC03002004070020060700207D
:10B7C0009A020020710500208405002074050020E5
:10B7D0007205002070050020340200207C05002046
:10B7E000FEBFFFFF20A00000840100207E06002095
:10B7F00008080000F4030020854A9279120716D544
:10B80000002811D013E0834A688B128890420868A0
:10B8100005D3FF212E31095CFF3039300DE0FF30B8
:10B820002130807B207270BDE078002808D0086845
:10B83000FF212D31095CFF303530FFF772FFF1E752
:10B8400075480068FF308130C07BEBE700206072F4
:10B8500008680822FF302130007B20726F48018881
:10B860009143018070BD6E4800214172C1724173E5
:10B8700041606C490822498B0182C1816748018877
:10B88000914301807047F8B500F0A3F8002846D036
:10B890006149644EFF2308682933728B1B5A624C3E
:10B8A0005F4F9A4208D8FF222832125CFA7522684C
:10B8B000FF322132127C07E0FF222732125CFA7538
:10B8C0002268FF322132D27B3A730025FF303D805F
:10B8D0002130407900F072F97968814206DBF8780E
:10B8E000002801D10120B870FD7016E0404281426D
:10B8F00006DCB878002801D10120F870BD700CE09A
:10B90000484940391420085E484988474249FF2287
:10B9100009682B328A5E904202DBFFF7A4FFF8BD74
:10B92000787B401C78733A488079C00602D5F87855
:10B9300001281BD02068FF302130407CB872FFF70F
:10B940000BFF797A387A814239D231488079C00642
:10B9500031D5F87ABA7A90422DD3FD70708B3A8A3D
:10B96000801A002811DC002929D12AE0FF21206853
:10B970003231095CFF303D30FFF7D3FEB872F87A00
:10B98000FF28DCD2401CF872D9E72168FF31213151
:10B990008A7C82420CDBC97C4143C817000F4018E7
:10B9A00023490011498A081878820120B87506E0F9
:10B9B0000120F87005E0787B397B884201D3FFF7DE
:10B9C00092FE7D60708B3882797A0029A7D1F88148
:10B9D000F8BD134A174B51681B6C0020C918516001
:10B9E000164B15491B78C9889B0601D514498988CF
:10B9F0001388591889B21180074A3C231268FF3214
:10BA0000213212795A43914200D30120704700003D
:10BA1000EC0300207E060020F8030020B401002083
:10BA20005807002010030020F4030020695900018A
:10BA300084010020CC0100202C040020960200206C
:10BA40003402002010B54948418D49480068FF3054
:10BA5000A130407D814240D3464947488A88C38807
:10BA6000D01880B288803C2822D388883C3880B2A5
:10BA70008880CA78521CCA703C28F6D2D0B23C28C2
:10BA800016D33C38C8708878401CC0B2887018281B
:10BA90000ED3183888704878401CC0B248701E28F1
:10BAA00006D31E3848700878FF2801D2401C087061
:10BAB000C868002811D08A68D2188A6082420CD3E4
:10BAC000002088602E4B2D4A04212A4898472D4992
:10BAD0000122088852021043088010BD10B501F001
:10BAE00038F901F0A5F901F0D1F9274C2068203090
:10BAF000C078800701D501F097FA206820300079DE
:10BB0000000601D501F01FFB20682030C0784007F7
:10BB100001D501F070FB01F0E3FB01F0F8FB1B48DD
:10BB20001B490078097808431A49097808431A49DB
:10BB300009780843194909780843194909780843DD
:10BB400018490978084318490978084317490978BA
:10BB5000084317490978084316490978084304D06F
:10BB60001548012201781143017010BDD002002058
:10BB7000FC030020700700202C0400205206002047
:10BB8000C3580001CC030020F40300205D06002010
:10BB90005C0600205E0600205F0600206006002094
:10BBA0006106002062060020630600206406002073
:10BBB00065060020660600200804002003B4014842
:10BBC000019001BD6B1E000103B40148019001BD4D
:10BBD0000F18000103B40148019001BD535000014A
:10BBE00003B40148019001BD9746000103B4014828
:10BBF000019001BD1150000103B40148019001BD45
:10BC0000D55D000103B40148019001BD151F00017D
:10BC100003B40148019001BDF71E000103B40148BF
:10BC2000019001BD973A000103B40148019001BDA4
:10BC3000133B000103B40148019001BDD73A000154
:10BC400003B40148019001BD353B000103B4014834
:10BC5000019001BD553B000103B40148019001BDB5
:10BC6000933F000103B40148019001BD7D400001F4
:10BC700003B40148019001BDE93F000103B401484C
:10BC8000019001BD752E000103B40148019001BD72
:10BC90005127000103B40148019001BD413F00015B
:10BCA00003B40148019001BD1D26000103B4014801
:10BCB000019001BDFB42000103B40148019001BDA8
:10BCC0008942000103B40148019001BD1F420001F7
:10BCD00003B40148019001BDC944000103B4014807
:10BCE000019001BDDD58000103B40148019001BD80
:10BCF0001D4A000103B40148019001BD3754000101
:10BD000003B40148019001BDA922000103B4014818
:10BD1000019001BDFB49000103B40148019001BD40
:10BD2000D108000103B40148019001BD210B0001BD
:10BD300003B40148019001BDF90A000103B40148B0
:10BD4000019001BD5556000103B40148019001BDA9
:10BD50007555000103B40148019001BD1D090001A2
:10BD600003B40148019001BDB555000103B4014879
:10BD7000019001BDD356000103B40148019001BDFB
:10BD80003149000103B40148019001BD570C000185
:10BD900003B40148019001BDFF16000103B401483E
:10BDA000019001BD9F0A000103B40148019001BD4B
:10BDB000DD4E000103B40148019001BD031D0001E7
:10BDC00003B40148019001BDD923000103B4014827
:10BDD000019001BD9D53000103B40148019001BDD4
:10BDE000A358000103B40148019001BD4958000166
:10BDF00003B40148019001BD9D20000103B4014836
:10BE0000019001BD3750000103B40148019001BD0C
:10BE1000891D0001F8B504148BB2264682B25E4338
:10BE20000D14104637145843360480190021794107
:10BE300016466E43371436048019794126466E4300
:10BE40008919F8BD30B47446641E2578641CAB4271
:10BE500000D21D46635D5B00E31830BC1847FFFF4E
:10BE60003D050002790700021D0900025709000282
:10BE70009709000200000000000000000000000020
:10BE800000000000000000000000000000000000B2
:10BE900000000000000000000000000000000000A2
:10BEA0000000000000000000000000000000000092
:10BEB0000000000000000000000000000000000082
:10BEC0000000000000000000000000000000000072
:10BED0000000000000000000000000000000000062
:10BEE0000000000000000000000000000000000052
:10BEF0000000000000000000000000000000000042
:10BF00000000000000000000000000000000000031
:10BF10000000000000000000000000000000000021
:10BF2000000000FF00000000000000000000000012
:10BF30000000000000000000000000000000000001
:10BF400000000000000000000000000000000000F1
:10BF500000000000000000000000000000000000E1
:10BF600000000000000000000000000000000000D1
:10BF70000000000000000000FFFFFFFFFFFFFFFFC9
:10BF8000FFFFFFFFFFFFFFFFFFFFFFFFFFFFFFFFC1
:10BF9000FFFFFFFFFFFFFFFFFFFFFFFFFFFFFFFFB1
:10BFA000FFFFFFFFFFFFFFFFFFFFFFFFFFFFFFFFA1
:10BFB000FFFFFFFFFFFFFFFFFFFFFFFFFFFFFFFF91
:10BFC000FFFFFFFFFFFFFFFFFFFFFFFFFFFFFFFF81
:10BFD000FFFFFFFFFFFFFFFFFFFFFFFFFFFFFFFF71
:10BFE000FFFFFFFFFFFFFFFFFFFFFFFFFFFFFFFF61
:10BFF000FFFFFFFFFFFFFFFFFFFFFFFFF96B6ADBA4
:00000001FF
